{
  "contractName": "foodsMarket",
  "abi": [
    {
      "constant": true,
      "inputs": [],
      "name": "goodsCount",
      "outputs": [
        {
          "name": "",
          "type": "uint256"
        }
      ],
      "payable": false,
      "stateMutability": "view",
      "type": "function",
      "signature": "0x1417ff7e"
    },
    {
      "constant": true,
      "inputs": [],
      "name": "associationsCount",
      "outputs": [
        {
          "name": "",
          "type": "uint256"
        }
      ],
      "payable": false,
      "stateMutability": "view",
      "type": "function",
      "signature": "0x2e2e03f4"
    },
    {
      "constant": true,
      "inputs": [
        {
          "name": "",
          "type": "uint256"
        }
      ],
      "name": "goods",
      "outputs": [
        {
          "name": "id",
          "type": "uint256"
        },
        {
          "name": "categorie",
          "type": "uint8"
        },
        {
          "name": "quantite",
          "type": "uint256"
        },
        {
          "name": "bigStoreAddress",
          "type": "address"
        },
        {
          "name": "dateDepot",
          "type": "uint256"
        },
        {
          "name": "assocAddress",
          "type": "address"
        }
      ],
      "payable": false,
      "stateMutability": "view",
      "type": "function",
      "signature": "0x2f724394"
    },
    {
      "constant": true,
      "inputs": [
        {
          "name": "",
          "type": "uint256"
        }
      ],
      "name": "conventions",
      "outputs": [
        {
          "name": "bigStore",
          "type": "address"
        },
        {
          "name": "assoc",
          "type": "address"
        }
      ],
      "payable": false,
      "stateMutability": "view",
      "type": "function",
      "signature": "0x863e9363"
    },
    {
      "constant": true,
      "inputs": [
        {
          "name": "",
          "type": "uint256"
        }
      ],
      "name": "associations",
      "outputs": [
        {
          "name": "adrAssoc",
          "type": "address"
        },
        {
          "name": "titre",
          "type": "string"
        },
        {
          "name": "siege",
          "type": "string"
        },
        {
          "name": "statuts",
          "type": "uint8"
        }
      ],
      "payable": false,
      "stateMutability": "view",
      "type": "function",
      "signature": "0x9e2c4260"
    },
    {
      "constant": true,
      "inputs": [],
      "name": "_owner",
      "outputs": [
        {
          "name": "",
          "type": "address"
        }
      ],
      "payable": false,
      "stateMutability": "view",
      "type": "function",
      "signature": "0xb2bdfa7b"
    },
    {
      "constant": true,
      "inputs": [],
      "name": "conventionsCount",
      "outputs": [
        {
          "name": "",
          "type": "uint256"
        }
      ],
      "payable": false,
      "stateMutability": "view",
      "type": "function",
      "signature": "0xbdacf320"
    },
    {
      "constant": true,
      "inputs": [],
      "name": "bigStoresCount",
      "outputs": [
        {
          "name": "",
          "type": "uint256"
        }
      ],
      "payable": false,
      "stateMutability": "view",
      "type": "function",
      "signature": "0xc0c2e369"
    },
    {
      "constant": true,
      "inputs": [
        {
          "name": "",
          "type": "uint256"
        }
      ],
      "name": "bigStores",
      "outputs": [
        {
          "name": "adrBigStore",
          "type": "address"
        },
        {
          "name": "nom",
          "type": "string"
        },
        {
          "name": "siege",
          "type": "string"
        },
        {
          "name": "surface",
          "type": "uint256"
        }
      ],
      "payable": false,
      "stateMutability": "view",
      "type": "function",
      "signature": "0xd47c5f60"
    },
    {
      "inputs": [],
      "payable": false,
      "stateMutability": "nonpayable",
      "type": "constructor",
      "signature": "constructor"
    },
    {
      "anonymous": false,
      "inputs": [
        {
          "indexed": false,
          "name": "categorie",
          "type": "uint8"
        },
        {
          "indexed": false,
          "name": "quantite",
          "type": "uint256"
        },
        {
          "indexed": false,
          "name": "titre",
          "type": "string"
        },
        {
          "indexed": false,
          "name": "siege",
          "type": "string"
        }
      ],
      "name": "SelectedGoodEvent",
      "type": "event",
      "signature": "0xf3da733028e0cd6a5e7c905727370f55cdda02d1f39e8b32ceecfccf143da122"
    },
    {
      "constant": false,
      "inputs": [
        {
          "name": "_address",
          "type": "address"
        }
      ],
      "name": "blackListed",
      "outputs": [],
      "payable": false,
      "stateMutability": "nonpayable",
      "type": "function",
      "signature": "0xbbde5b25"
    },
    {
      "constant": true,
      "inputs": [
        {
          "name": "_address",
          "type": "address"
        }
      ],
      "name": "isBlackListed",
      "outputs": [
        {
          "name": "",
          "type": "bool"
        }
      ],
      "payable": false,
      "stateMutability": "view",
      "type": "function",
      "signature": "0xe47d6060"
    },
    {
      "constant": true,
      "inputs": [
        {
          "name": "_cat",
          "type": "uint256"
        }
      ],
      "name": "enumCat",
      "outputs": [
        {
          "name": "",
          "type": "uint8"
        }
      ],
      "payable": false,
      "stateMutability": "pure",
      "type": "function",
      "signature": "0x0e0abafa"
    },
    {
      "constant": true,
      "inputs": [
        {
          "name": "_stat",
          "type": "uint256"
        }
      ],
      "name": "enumStat",
      "outputs": [
        {
          "name": "",
          "type": "uint8"
        }
      ],
      "payable": false,
      "stateMutability": "pure",
      "type": "function",
      "signature": "0x143e0fef"
    },
    {
      "constant": true,
      "inputs": [
        {
          "name": "_bigStoreAdr",
          "type": "address"
        },
        {
          "name": "_assocAdr",
          "type": "address"
        }
      ],
      "name": "withConventionBigStoreAssoc",
      "outputs": [
        {
          "name": "",
          "type": "bool"
        }
      ],
      "payable": false,
      "stateMutability": "view",
      "type": "function",
      "signature": "0x0c437d58"
    },
    {
      "constant": false,
      "inputs": [
        {
          "name": "_titre",
          "type": "string"
        },
        {
          "name": "_siege",
          "type": "string"
        },
        {
          "name": "_statuts",
          "type": "uint256"
        }
      ],
      "name": "addAssociation",
      "outputs": [],
      "payable": false,
      "stateMutability": "nonpayable",
      "type": "function",
      "signature": "0xd2b7b0fe"
    },
    {
      "constant": false,
      "inputs": [
        {
          "name": "_nom",
          "type": "string"
        },
        {
          "name": "_siege",
          "type": "string"
        },
        {
          "name": "_surface",
          "type": "uint256"
        }
      ],
      "name": "addBigStore",
      "outputs": [],
      "payable": false,
      "stateMutability": "nonpayable",
      "type": "function",
      "signature": "0x5998471a"
    },
    {
      "constant": false,
      "inputs": [
        {
          "name": "_assoc",
          "type": "address"
        }
      ],
      "name": "addConvention",
      "outputs": [],
      "payable": false,
      "stateMutability": "nonpayable",
      "type": "function",
      "signature": "0x0ab63eef"
    },
    {
      "constant": false,
      "inputs": [
        {
          "name": "_categorie",
          "type": "uint256"
        },
        {
          "name": "_quantite",
          "type": "uint256"
        }
      ],
      "name": "proposedGood",
      "outputs": [],
      "payable": false,
      "stateMutability": "nonpayable",
      "type": "function",
      "signature": "0xf3622d1e"
    },
    {
      "constant": false,
      "inputs": [
        {
          "name": "_index",
          "type": "uint256"
        }
      ],
      "name": "selectedGood",
      "outputs": [],
      "payable": false,
      "stateMutability": "nonpayable",
      "type": "function",
      "signature": "0x639b6cba"
    },
    {
      "constant": false,
      "inputs": [
        {
          "name": "_index",
          "type": "uint256"
        }
      ],
      "name": "sentGood",
      "outputs": [],
      "payable": false,
      "stateMutability": "nonpayable",
      "type": "function",
      "signature": "0x8386eb50"
    }
  ],
  "bytecode": "0x608060405234801561001057600080fd5b5033600460006101000a81548173ffffffffffffffffffffffffffffffffffffffff021916908373ffffffffffffffffffffffffffffffffffffffff160217905550612581806100616000396000f3fe608060405234801561001057600080fd5b5060043610610149576000357c010000000000000000000000000000000000000000000000000000000090048063863e9363116100ca578063c0c2e3691161008e578063c0c2e36914610815578063d2b7b0fe14610833578063d47c5f601461098f578063e47d606014610adc578063f3622d1e14610b3857610149565b8063863e93631461056d5780639e2c42601461060e578063b2bdfa7b14610769578063bbde5b25146107b3578063bdacf320146107f757610149565b80632e2e03f4116101115780632e2e03f4146102cc5780632f724394146102ea5780635998471a146103b5578063639b6cba146105115780638386eb501461053f57610149565b80630ab63eef1461014e5780630c437d58146101925780630e0abafa1461020e5780631417ff7e1461025e578063143e0fef1461027c575b600080fd5b6101906004803603602081101561016457600080fd5b81019080803573ffffffffffffffffffffffffffffffffffffffff169060200190929190505050610b70565b005b6101f4600480360360408110156101a857600080fd5b81019080803573ffffffffffffffffffffffffffffffffffffffff169060200190929190803573ffffffffffffffffffffffffffffffffffffffff169060200190929190505050610d75565b604051808215151515815260200191505060405180910390f35b61023a6004803603602081101561022457600080fd5b8101908080359060200190929190505050610e98565b6040518082600481111561024a57fe5b60ff16815260200191505060405180910390f35b610266610ef9565b6040518082815260200191505060405180910390f35b6102a86004803603602081101561029257600080fd5b8101908080359060200190929190505050610eff565b604051808260028111156102b857fe5b60ff16815260200191505060405180910390f35b6102d4610f3c565b6040518082815260200191505060405180910390f35b6103166004803603602081101561030057600080fd5b8101908080359060200190929190505050610f42565b6040518087815260200186600481111561032c57fe5b60ff1681526020018581526020018473ffffffffffffffffffffffffffffffffffffffff1673ffffffffffffffffffffffffffffffffffffffff1681526020018381526020018273ffffffffffffffffffffffffffffffffffffffff1673ffffffffffffffffffffffffffffffffffffffff168152602001965050505050505060405180910390f35b61050f600480360360608110156103cb57600080fd5b81019080803590602001906401000000008111156103e857600080fd5b8201836020820111156103fa57600080fd5b8035906020019184600183028401116401000000008311171561041c57600080fd5b91908080601f016020809104026020016040519081016040528093929190818152602001838380828437600081840152601f19601f8201169050808301925050505050505091929192908035906020019064010000000081111561047f57600080fd5b82018360208201111561049157600080fd5b803590602001918460018302840111640100000000831117156104b357600080fd5b91908080601f016020809104026020016040519081016040528093929190818152602001838380828437600081840152601f19601f82011690508083019250505050505050919291929080359060200190929190505050610fcb565b005b61053d6004803603602081101561052757600080fd5b8101908080359060200190929190505050611127565b005b61056b6004803603602081101561055557600080fd5b810190808035906020019092919050505061173c565b005b6105996004803603602081101561058357600080fd5b8101908080359060200190929190505050611a18565b604051808373ffffffffffffffffffffffffffffffffffffffff1673ffffffffffffffffffffffffffffffffffffffff1681526020018273ffffffffffffffffffffffffffffffffffffffff1673ffffffffffffffffffffffffffffffffffffffff1681526020019250505060405180910390f35b61063a6004803603602081101561062457600080fd5b8101908080359060200190929190505050611a8b565b604051808573ffffffffffffffffffffffffffffffffffffffff1673ffffffffffffffffffffffffffffffffffffffff168152602001806020018060200184600281111561068457fe5b60ff168152602001838103835286818151815260200191508051906020019080838360005b838110156106c45780820151818401526020810190506106a9565b50505050905090810190601f1680156106f15780820380516001836020036101000a031916815260200191505b50838103825285818151815260200191508051906020019080838360005b8381101561072a57808201518184015260208101905061070f565b50505050905090810190601f1680156107575780820380516001836020036101000a031916815260200191505b50965050505050505060405180910390f35b610771611c18565b604051808273ffffffffffffffffffffffffffffffffffffffff1673ffffffffffffffffffffffffffffffffffffffff16815260200191505060405180910390f35b6107f5600480360360208110156107c957600080fd5b81019080803573ffffffffffffffffffffffffffffffffffffffff169060200190929190505050611c3e565b005b6107ff611d5f565b6040518082815260200191505060405180910390f35b61081d611d65565b6040518082815260200191505060405180910390f35b61098d6004803603606081101561084957600080fd5b810190808035906020019064010000000081111561086657600080fd5b82018360208201111561087857600080fd5b8035906020019184600183028401116401000000008311171561089a57600080fd5b91908080601f016020809104026020016040519081016040528093929190818152602001838380828437600081840152601f19601f820116905080830192505050505050509192919290803590602001906401000000008111156108fd57600080fd5b82018360208201111561090f57600080fd5b8035906020019184600183028401116401000000008311171561093157600080fd5b91908080601f016020809104026020016040519081016040528093929190818152602001838380828437600081840152601f19601f82011690508083019250505050505050919291929080359060200190929190505050611d6b565b005b6109bb600480360360208110156109a557600080fd5b8101908080359060200190929190505050611f08565b604051808573ffffffffffffffffffffffffffffffffffffffff1673ffffffffffffffffffffffffffffffffffffffff1681526020018060200180602001848152602001838103835286818151815260200191508051906020019080838360005b83811015610a37578082015181840152602081019050610a1c565b50505050905090810190601f168015610a645780820380516001836020036101000a031916815260200191505b50838103825285818151815260200191508051906020019080838360005b83811015610a9d578082015181840152602081019050610a82565b50505050905090810190601f168015610aca5780820380516001836020036101000a031916815260200191505b50965050505050505060405180910390f35b610b1e60048036036020811015610af257600080fd5b81019080803573ffffffffffffffffffffffffffffffffffffffff169060200190929190505050612088565b604051808215151515815260200191505060405180910390f35b610b6e60048036036040811015610b4e57600080fd5b81019080803590602001909291908035906020019092919050505061212c565b005b6000600860003373ffffffffffffffffffffffffffffffffffffffff1673ffffffffffffffffffffffffffffffffffffffff1681526020019081526020016000205414151515610c28576040517f08c379a000000000000000000000000000000000000000000000000000000000815260040180806020018281038252600d8152602001807f4e6f74204269672053746f72650000000000000000000000000000000000000081525060200191505060405180910390fd5b610c30612373565b33816000019073ffffffffffffffffffffffffffffffffffffffff16908173ffffffffffffffffffffffffffffffffffffffff168152505081816020019073ffffffffffffffffffffffffffffffffffffffff16908173ffffffffffffffffffffffffffffffffffffffff16815250506006819080600181540180825580915050906001820390600052602060002090600202016000909192909190915060008201518160000160006101000a81548173ffffffffffffffffffffffffffffffffffffffff021916908373ffffffffffffffffffffffffffffffffffffffff16021790555060208201518160010160006101000a81548173ffffffffffffffffffffffffffffffffffffffff021916908373ffffffffffffffffffffffffffffffffffffffff1602179055505050506003600081548092919060010191905055505050565b600080600090505b600680549050811015610e8c578373ffffffffffffffffffffffffffffffffffffffff16600682815481101515610db057fe5b906000526020600020906002020160000160009054906101000a900473ffffffffffffffffffffffffffffffffffffffff1673ffffffffffffffffffffffffffffffffffffffff16148015610e7057508273ffffffffffffffffffffffffffffffffffffffff16600682815481101515610e2657fe5b906000526020600020906002020160010160009054906101000a900473ffffffffffffffffffffffffffffffffffffffff1673ffffffffffffffffffffffffffffffffffffffff16145b15610e7f576001915050610e92565b8080600101915050610d7d565b50600090505b92915050565b600080821415610eab5760009050610ef4565b6001821415610ebd5760019050610ef4565b6002821415610ecf5760029050610ef4565b6003821415610ee15760039050610ef4565b6004821415610ef35760049050610ef4565b5b919050565b60025481565b600080821415610f125760009050610f37565b6001821415610f245760019050610f37565b6002821415610f365760029050610f37565b5b919050565b60015481565b60096020528060005260406000206000915090508060000154908060010160009054906101000a900460ff16908060020154908060030160009054906101000a900473ffffffffffffffffffffffffffffffffffffffff16908060040154908060050160009054906101000a900473ffffffffffffffffffffffffffffffffffffffff16905086565b610fd36123b9565b33816000019073ffffffffffffffffffffffffffffffffffffffff16908173ffffffffffffffffffffffffffffffffffffffff168152505083816020018190525082816040018190525081816060018181525050600080815480929190600101919050555080600a60008054815260200190815260200160002060008201518160000160006101000a81548173ffffffffffffffffffffffffffffffffffffffff021916908373ffffffffffffffffffffffffffffffffffffffff16021790555060208201518160010190805190602001906110b09291906123f8565b5060408201518160020190805190602001906110cd9291906123f8565b5060608201518160030155905050600054600860003373ffffffffffffffffffffffffffffffffffffffff1673ffffffffffffffffffffffffffffffffffffffff1681526020019081526020016000208190555050505050565b6000600760003373ffffffffffffffffffffffffffffffffffffffff1673ffffffffffffffffffffffffffffffffffffffff16815260200190815260200160002054141515156111df576040517f08c379a000000000000000000000000000000000000000000000000000000000815260040180806020018281038252600f8152602001807f4e6f74204173736f63696174696f6e000000000000000000000000000000000081525060200191505060405180910390fd5b600015156111ec33612088565b1515141515611263576040517f08c379a000000000000000000000000000000000000000000000000000000000815260040180806020018281038252600e8152602001807f497320426c61636b4c697374656400000000000000000000000000000000000081525060200191505060405180910390fd5b6112a36009600083815260200190815260200160002060030160009054906101000a900473ffffffffffffffffffffffffffffffffffffffff1633610d75565b1515611317576040517f08c379a00000000000000000000000000000000000000000000000000000000081526004018080602001828103825260158152602001807f4e6f20636f6e76656e74696f6e206265747765656e000000000000000000000081525060200191505060405180910390fd5b6202a300620d2f0003600960008381526020019081526020016000206004015442031115151561134657600080fd5b336009600083815260200190815260200160002060050160006101000a81548173ffffffffffffffffffffffffffffffffffffffff021916908373ffffffffffffffffffffffffffffffffffffffff1602179055506000600760003373ffffffffffffffffffffffffffffffffffffffff1673ffffffffffffffffffffffffffffffffffffffff1681526020019081526020016000205490506113e7612478565b600b6000838152602001908152602001600020608060405190810160405290816000820160009054906101000a900473ffffffffffffffffffffffffffffffffffffffff1673ffffffffffffffffffffffffffffffffffffffff1673ffffffffffffffffffffffffffffffffffffffff168152602001600182018054600181600116156101000203166002900480601f0160208091040260200160405190810160405280929190818152602001828054600181600116156101000203166002900480156114f55780601f106114ca576101008083540402835291602001916114f5565b820191906000526020600020905b8154815290600101906020018083116114d857829003601f168201915b50505050508152602001600282018054600181600116156101000203166002900480601f0160208091040260200160405190810160405280929190818152602001828054600181600116156101000203166002900480156115975780601f1061156c57610100808354040283529160200191611597565b820191906000526020600020905b81548152906001019060200180831161157a57829003601f168201915b505050505081526020016003820160009054906101000a900460ff1660028111156115be57fe5b60028111156115c957fe5b8152505090507ff3da733028e0cd6a5e7c905727370f55cdda02d1f39e8b32ceecfccf143da1226009600085815260200190815260200160002060010160009054906101000a900460ff166009600086815260200190815260200160002060020154836020015184604001516040518085600481111561164557fe5b60ff1681526020018481526020018060200180602001838103835285818151815260200191508051906020019080838360005b83811015611693578082015181840152602081019050611678565b50505050905090810190601f1680156116c05780820380516001836020036101000a031916815260200191505b50838103825284818151815260200191508051906020019080838360005b838110156116f95780820151818401526020810190506116de565b50505050905090810190601f1680156117265780820380516001836020036101000a031916815260200191505b50965050505050505060405180910390a1505050565b6117446124c2565b6009600083815260200190815260200160002060c06040519081016040529081600082015481526020016001820160009054906101000a900460ff16600481111561178b57fe5b600481111561179657fe5b8152602001600282015481526020016003820160009054906101000a900473ffffffffffffffffffffffffffffffffffffffff1673ffffffffffffffffffffffffffffffffffffffff1673ffffffffffffffffffffffffffffffffffffffff168152602001600482015481526020016005820160009054906101000a900473ffffffffffffffffffffffffffffffffffffffff1673ffffffffffffffffffffffffffffffffffffffff1673ffffffffffffffffffffffffffffffffffffffff16815250509050806060015173ffffffffffffffffffffffffffffffffffffffff163373ffffffffffffffffffffffffffffffffffffffff16141515611903576040517f08c379a00000000000000000000000000000000000000000000000000000000081526004018080602001828103825260128152602001807f4973206e6f742072696768742073746f7265000000000000000000000000000081525060200191505060405180910390fd5b620d2f008160800151420311151515611984576040517f08c379a000000000000000000000000000000000000000000000000000000000815260040180806020018281038252600e8152602001807f64656c617920657870697265642000000000000000000000000000000000000081525060200191505060405180910390fd5b600960008381526020019081526020016000206000808201600090556001820160006101000a81549060ff021916905560028201600090556003820160006101000a81549073ffffffffffffffffffffffffffffffffffffffff021916905560048201600090556005820160006101000a81549073ffffffffffffffffffffffffffffffffffffffff021916905550505050565b600681815481101515611a2757fe5b90600052602060002090600202016000915090508060000160009054906101000a900473ffffffffffffffffffffffffffffffffffffffff16908060010160009054906101000a900473ffffffffffffffffffffffffffffffffffffffff16905082565b600b6020528060005260406000206000915090508060000160009054906101000a900473ffffffffffffffffffffffffffffffffffffffff1690806001018054600181600116156101000203166002900480601f016020809104026020016040519081016040528092919081815260200182805460018160011615610100020316600290048015611b5d5780601f10611b3257610100808354040283529160200191611b5d565b820191906000526020600020905b815481529060010190602001808311611b4057829003601f168201915b505050505090806002018054600181600116156101000203166002900480601f016020809104026020016040519081016040528092919081815260200182805460018160011615610100020316600290048015611bfb5780601f10611bd057610100808354040283529160200191611bfb565b820191906000526020600020905b815481529060010190602001808311611bde57829003601f168201915b5050505050908060030160009054906101000a900460ff16905084565b600460009054906101000a900473ffffffffffffffffffffffffffffffffffffffff1681565b6000600860003373ffffffffffffffffffffffffffffffffffffffff1673ffffffffffffffffffffffffffffffffffffffff1681526020019081526020016000205414151515611cf6576040517f08c379a000000000000000000000000000000000000000000000000000000000815260040180806020018281038252600d8152602001807f4e6f74204269672053746f72650000000000000000000000000000000000000081525060200191505060405180910390fd5b60058190806001815401808255809150509060018203906000526020600020016000909192909190916101000a81548173ffffffffffffffffffffffffffffffffffffffff021916908373ffffffffffffffffffffffffffffffffffffffff1602179055505050565b60035481565b60005481565b611d73612478565b33816000019073ffffffffffffffffffffffffffffffffffffffff16908173ffffffffffffffffffffffffffffffffffffffff1681525050838160200181905250828160400181905250611dc682610eff565b81606001906002811115611dd657fe5b90816002811115611de357fe5b8152505060016000815480929190600101919050555080600b6000600154815260200190815260200160002060008201518160000160006101000a81548173ffffffffffffffffffffffffffffffffffffffff021916908373ffffffffffffffffffffffffffffffffffffffff1602179055506020820151816001019080519060200190611e729291906123f8565b506040820151816002019080519060200190611e8f9291906123f8565b5060608201518160030160006101000a81548160ff02191690836002811115611eb457fe5b0217905550905050600154600760003373ffffffffffffffffffffffffffffffffffffffff1673ffffffffffffffffffffffffffffffffffffffff1681526020019081526020016000208190555050505050565b600a6020528060005260406000206000915090508060000160009054906101000a900473ffffffffffffffffffffffffffffffffffffffff1690806001018054600181600116156101000203166002900480601f016020809104026020016040519081016040528092919081815260200182805460018160011615610100020316600290048015611fda5780601f10611faf57610100808354040283529160200191611fda565b820191906000526020600020905b815481529060010190602001808311611fbd57829003601f168201915b505050505090806002018054600181600116156101000203166002900480601f0160208091040260200160405190810160405280929190818152602001828054600181600116156101000203166002900480156120785780601f1061204d57610100808354040283529160200191612078565b820191906000526020600020905b81548152906001019060200180831161205b57829003601f168201915b5050505050908060030154905084565b600080600090505b600580549050811015612121578273ffffffffffffffffffffffffffffffffffffffff166005828154811015156120c357fe5b9060005260206000200160009054906101000a900473ffffffffffffffffffffffffffffffffffffffff1673ffffffffffffffffffffffffffffffffffffffff161415612114576001915050612127565b8080600101915050612090565b50600090505b919050565b6000600860003373ffffffffffffffffffffffffffffffffffffffff1673ffffffffffffffffffffffffffffffffffffffff16815260200190815260200160002054141515156121e4576040517f08c379a000000000000000000000000000000000000000000000000000000000815260040180806020018281038252600d8152602001807f4e6f74204269672053746f72650000000000000000000000000000000000000081525060200191505060405180910390fd5b6121ec6124c2565b60026000815480929190600101919050555060025481600001818152505061221383610e98565b8160200190600481111561222357fe5b9081600481111561223057fe5b81525050818160400181815250504281608001818152505033816060019073ffffffffffffffffffffffffffffffffffffffff16908173ffffffffffffffffffffffffffffffffffffffff1681525050806009600060025481526020019081526020016000206000820151816000015560208201518160010160006101000a81548160ff021916908360048111156122c457fe5b02179055506040820151816002015560608201518160030160006101000a81548173ffffffffffffffffffffffffffffffffffffffff021916908373ffffffffffffffffffffffffffffffffffffffff1602179055506080820151816004015560a08201518160050160006101000a81548173ffffffffffffffffffffffffffffffffffffffff021916908373ffffffffffffffffffffffffffffffffffffffff160217905550905050505050565b6040805190810160405280600073ffffffffffffffffffffffffffffffffffffffff168152602001600073ffffffffffffffffffffffffffffffffffffffff1681525090565b608060405190810160405280600073ffffffffffffffffffffffffffffffffffffffff1681526020016060815260200160608152602001600081525090565b828054600181600116156101000203166002900490600052602060002090601f016020900481019282601f1061243957805160ff1916838001178555612467565b82800160010185558215612467579182015b8281111561246657825182559160200191906001019061244b565b5b5090506124749190612530565b5090565b608060405190810160405280600073ffffffffffffffffffffffffffffffffffffffff1681526020016060815260200160608152602001600060028111156124bc57fe5b81525090565b60c06040519081016040528060008152602001600060048111156124e257fe5b815260200160008152602001600073ffffffffffffffffffffffffffffffffffffffff16815260200160008152602001600073ffffffffffffffffffffffffffffffffffffffff1681525090565b61255291905b8082111561254e576000816000905550600101612536565b5090565b9056fea165627a7a723058205a333fe5e4b0ff27bc5d1ad825ec7ae4b33284c96cf6703fce66ec34b76225430029",
  "source": "pragma solidity ^0.5.3;\r\ncontract foodsMarket {\r\n    \r\n    uint public bigStoresCount;\r\n    uint public associationsCount;\r\n    uint public goodsCount;\r\n    uint public conventionsCount;\r\n     \r\n    uint constant private  DELAI = 10 days;\r\n    address public _owner;\r\n    \r\n    event SelectedGoodEvent(Categorie categorie,uint quantite, string titre, string siege);\r\n    \r\n    struct Association {\r\n        address adrAssoc;\r\n        string titre;\r\n        string siege;\r\n        Statuts statuts;\r\n        \r\n    }\r\n    \r\n    struct BigStore {\r\n        address adrBigStore;\r\n        string nom;\r\n        string siege;\r\n        uint surface;\r\n    }\r\n    \r\n    struct Good{\r\n       uint id;\r\n       Categorie categorie;        \r\n       uint quantite;\r\n       address bigStoreAddress;\r\n       uint dateDepot;\r\n       address assocAddress;\r\n    }\r\n   struct Convention{\r\n       address bigStore;\r\n       address assoc;\r\n   }\r\n   \r\n   enum Categorie{\r\n        PRODUITFRAIS,\r\n        FRUITLEGUME,\r\n        VIANDE,\r\n        VIENNOISERIE,\r\n        SURGELE\r\n    }\r\n   enum Statuts{\r\n       NONDECLAREE,\r\n       DECLAREE,\r\n       UTILITEPUBLIQUE\r\n   }\r\n   \r\n   \r\n   address[] blackList;\r\n   Convention[] public conventions; \r\n   \r\n   mapping(address=>uint) addressToAssoc;\r\n   mapping(address => uint) addressToBigStore;\r\n   \r\n   mapping(uint=> Good) public goods;\r\n   mapping(uint => BigStore) public bigStores;\r\n   mapping(uint => Association) public associations;\r\n   \r\n   constructor() public{\r\n      _owner = msg.sender; \r\n   }\r\n   \r\n   modifier isAssoc() {\r\n        require(addressToAssoc[msg.sender] != 0,\"Not Association\"); \r\n        _;\r\n   }\r\n   \r\n   modifier isBigStore() {\r\n        require(addressToBigStore[msg.sender] != 0,\"Not Big Store\");\r\n        _;\r\n   }\r\n   function blackListed(address _address) public isBigStore{\r\n       blackList.push(_address);\r\n   }\r\n   \r\n   function isBlackListed(address _address) public view returns(bool){\r\n       for(uint i = 0; i<blackList.length; i++ ){\r\n           if(blackList[i]==_address){\r\n              return true; \r\n           }\r\n       }\r\n       return false;\r\n   }\r\n   \r\n   modifier notBlackListed() {\r\n       require(isBlackListed(msg.sender) == false,\"Is BlackListed\");\r\n       _;\r\n   }\r\n   modifier isOwner() {\r\n       require(msg.sender == _owner);\r\n       _;\r\n   }\r\n   function enumCat(uint _cat) public pure returns(Categorie){\r\n    if(_cat == 0){return Categorie.PRODUITFRAIS;}\r\n        else if(_cat == 1){return Categorie.FRUITLEGUME;}\r\n        else if(_cat == 2){return Categorie.VIANDE;}\r\n        else if(_cat == 3){return Categorie.VIENNOISERIE;}\r\n        else if(_cat == 4){return Categorie.SURGELE;}   \r\n   }\r\n   function enumStat (uint _stat) public pure returns(Statuts){\r\n    if(_stat == 0){return Statuts.NONDECLAREE;}\r\n        else if(_stat == 1){return Statuts.DECLAREE;}\r\n        else if(_stat == 2){return Statuts.UTILITEPUBLIQUE;}\r\n           \r\n   }\r\n   \r\n   function withConventionBigStoreAssoc(address _bigStoreAdr, address _assocAdr) public view returns (bool){\r\n       for(uint i = 0; i< conventions.length; i++){\r\n           if(conventions[i].bigStore == _bigStoreAdr && conventions[i].assoc == _assocAdr){\r\n               return true;\r\n           }\r\n       }\r\n       return false;\r\n    } \r\n   \r\n   function addAssociation(string memory _titre, string memory _siege, uint _statuts) public {\r\n        Association memory _association;\r\n        _association.adrAssoc = msg.sender;\r\n        _association.titre = _titre;\r\n        _association.siege = _siege;\r\n        _association.statuts = enumStat(_statuts);\r\n        associationsCount++;\r\n        associations[associationsCount] = _association;\r\n        addressToAssoc[msg.sender] = associationsCount;\r\n   }\r\n   \r\n   function addBigStore(string memory _nom, string memory _siege, uint _surface) public {\r\n        BigStore memory _bigStore;\r\n        _bigStore.adrBigStore = msg.sender;\r\n        _bigStore.nom = _nom;\r\n        _bigStore.siege = _siege;\r\n        _bigStore.surface = _surface;\r\n        bigStoresCount++;\r\n        bigStores[bigStoresCount] = _bigStore;\r\n        addressToBigStore[msg.sender] = bigStoresCount;\r\n   }\r\n   function addConvention(address _assoc ) public isBigStore{\r\n       Convention memory _convention;\r\n       _convention.bigStore = msg.sender;\r\n       _convention.assoc = _assoc;\r\n       conventions.push(_convention);\r\n       conventionsCount++;\r\n       }\r\n   \r\n   function proposedGood(uint _categorie, uint _quantite) public isBigStore{\r\n        Good memory _good;\r\n        goodsCount++;\r\n        _good.id =goodsCount;\r\n        _good.categorie = enumCat(_categorie);\r\n        _good.quantite = _quantite;\r\n        _good.dateDepot = now;\r\n        _good.bigStoreAddress = msg.sender;\r\n        goods[goodsCount] = _good;\r\n    }\r\n   \r\n   \r\n   function selectedGood(uint _index) public isAssoc notBlackListed{\r\n       require(withConventionBigStoreAssoc(goods[_index].bigStoreAddress,msg.sender),\"No convention between\");\r\n       require(now - goods[_index].dateDepot <= DELAI - 2 days);\r\n       goods[_index].assocAddress = msg.sender;\r\n       uint _indexAssoc = addressToAssoc[msg.sender];\r\n       Association memory _association = associations[_indexAssoc];\r\n       emit SelectedGoodEvent(goods[_index].categorie,goods[_index].quantite,_association.titre,_association.siege);\r\n   }\r\n   \r\n   function sentGood(uint _index) public {\r\n       Good memory _good = goods[_index];\r\n       require(msg.sender ==_good.bigStoreAddress, \"Is not right store\");\r\n       require(now - _good.dateDepot <= DELAI,\"delay expired \");  \r\n       // suppression de la marchandise livree\r\n       delete goods[_index];\r\n    }\r\n   \r\n\r\n}",
  "sourcePath": "D:/foodsmarket/contracts/foodsMarket.sol",
  "compiler": {
    "name": "solc",
    "version": "0.5.3+commit.10d17f24.Emscripten.clang"
  },
  "schemaVersion": "3.0.5",
  "updatedAt": "2019-05-12T12:52:58.318Z",
  "devdoc": {
    "methods": {}
  },
  "userdoc": {
    "methods": {}
  }
}