{
  "contractName": "foodsMarket",
  "abi": [
    {
      "constant": true,
      "inputs": [],
      "name": "goodsCount",
      "outputs": [
        {
          "name": "",
          "type": "uint256"
        }
      ],
      "payable": false,
      "stateMutability": "view",
      "type": "function",
      "signature": "0x1417ff7e"
    },
    {
      "constant": true,
      "inputs": [],
      "name": "associationsCount",
      "outputs": [
        {
          "name": "",
          "type": "uint256"
        }
      ],
      "payable": false,
      "stateMutability": "view",
      "type": "function",
      "signature": "0x2e2e03f4"
    },
    {
      "constant": true,
      "inputs": [
        {
          "name": "",
          "type": "uint256"
        }
      ],
      "name": "goods",
      "outputs": [
        {
          "name": "id",
          "type": "uint256"
        },
        {
          "name": "categorie",
          "type": "uint8"
        },
        {
          "name": "quantite",
          "type": "uint256"
        },
        {
          "name": "bigStoreAddress",
          "type": "address"
        },
        {
          "name": "dateDepot",
          "type": "uint256"
        },
        {
          "name": "assocAddress",
          "type": "address"
        },
        {
          "name": "hash",
          "type": "bytes32"
        }
      ],
      "payable": false,
      "stateMutability": "view",
      "type": "function",
      "signature": "0x2f724394"
    },
    {
      "constant": true,
      "inputs": [
        {
          "name": "",
          "type": "uint256"
        }
      ],
      "name": "associations",
      "outputs": [
        {
          "name": "adrAssoc",
          "type": "address"
        },
        {
          "name": "titre",
          "type": "string"
        },
        {
          "name": "siege",
          "type": "string"
        },
        {
          "name": "statuts",
          "type": "uint8"
        }
      ],
      "payable": false,
      "stateMutability": "view",
      "type": "function",
      "signature": "0x9e2c4260"
    },
    {
      "constant": true,
      "inputs": [],
      "name": "_owner",
      "outputs": [
        {
          "name": "",
          "type": "address"
        }
      ],
      "payable": false,
      "stateMutability": "view",
      "type": "function",
      "signature": "0xb2bdfa7b"
    },
    {
      "constant": true,
      "inputs": [],
      "name": "bigStoresCount",
      "outputs": [
        {
          "name": "",
          "type": "uint256"
        }
      ],
      "payable": false,
      "stateMutability": "view",
      "type": "function",
      "signature": "0xc0c2e369"
    },
    {
      "constant": true,
      "inputs": [
        {
          "name": "",
          "type": "uint256"
        }
      ],
      "name": "bigStores",
      "outputs": [
        {
          "name": "adrBigStore",
          "type": "address"
        },
        {
          "name": "nom",
          "type": "string"
        },
        {
          "name": "siege",
          "type": "string"
        },
        {
          "name": "surface",
          "type": "uint256"
        }
      ],
      "payable": false,
      "stateMutability": "view",
      "type": "function",
      "signature": "0xd47c5f60"
    },
    {
      "inputs": [],
      "payable": false,
      "stateMutability": "nonpayable",
      "type": "constructor",
      "signature": "constructor"
    },
    {
      "anonymous": false,
      "inputs": [
        {
          "indexed": false,
          "name": "categorie",
          "type": "uint8"
        },
        {
          "indexed": false,
          "name": "quantite",
          "type": "uint256"
        },
        {
          "indexed": false,
          "name": "nom",
          "type": "string"
        },
        {
          "indexed": false,
          "name": "siege",
          "type": "string"
        }
      ],
      "name": "ProposedGoodEvent",
      "type": "event",
      "signature": "0x93026f417a1729d0da2973115e4399b6b2c286c5eab29ba2016e9efdded0127f"
    },
    {
      "anonymous": false,
      "inputs": [
        {
          "indexed": false,
          "name": "categorie",
          "type": "uint8"
        },
        {
          "indexed": false,
          "name": "quantite",
          "type": "uint256"
        },
        {
          "indexed": false,
          "name": "titre",
          "type": "string"
        },
        {
          "indexed": false,
          "name": "siege",
          "type": "string"
        }
      ],
      "name": "SelectedGoodEvent",
      "type": "event",
      "signature": "0xf3da733028e0cd6a5e7c905727370f55cdda02d1f39e8b32ceecfccf143da122"
    },
    {
      "constant": false,
      "inputs": [
        {
          "name": "_address",
          "type": "address"
        }
      ],
      "name": "blackListed",
      "outputs": [],
      "payable": false,
      "stateMutability": "nonpayable",
      "type": "function",
      "signature": "0xbbde5b25"
    },
    {
      "constant": true,
      "inputs": [
        {
          "name": "_address",
          "type": "address"
        }
      ],
      "name": "isBlackListed",
      "outputs": [
        {
          "name": "",
          "type": "bool"
        }
      ],
      "payable": false,
      "stateMutability": "view",
      "type": "function",
      "signature": "0xe47d6060"
    },
    {
      "constant": true,
      "inputs": [
        {
          "name": "_cat",
          "type": "uint256"
        }
      ],
      "name": "enumCat",
      "outputs": [
        {
          "name": "",
          "type": "uint8"
        }
      ],
      "payable": false,
      "stateMutability": "pure",
      "type": "function",
      "signature": "0x0e0abafa"
    },
    {
      "constant": true,
      "inputs": [
        {
          "name": "_stat",
          "type": "uint256"
        }
      ],
      "name": "enumStat",
      "outputs": [
        {
          "name": "",
          "type": "uint8"
        }
      ],
      "payable": false,
      "stateMutability": "pure",
      "type": "function",
      "signature": "0x143e0fef"
    },
    {
      "constant": true,
      "inputs": [
        {
          "name": "_bigStoreAdr",
          "type": "address"
        },
        {
          "name": "_assocAdr",
          "type": "address"
        }
      ],
      "name": "withConventionBigStoreAssoc",
      "outputs": [
        {
          "name": "",
          "type": "bool"
        }
      ],
      "payable": false,
      "stateMutability": "view",
      "type": "function",
      "signature": "0x0c437d58"
    },
    {
      "constant": false,
      "inputs": [
        {
          "name": "_titre",
          "type": "string"
        },
        {
          "name": "_siege",
          "type": "string"
        },
        {
          "name": "_statuts",
          "type": "uint256"
        }
      ],
      "name": "addAssociation",
      "outputs": [],
      "payable": false,
      "stateMutability": "nonpayable",
      "type": "function",
      "signature": "0xd2b7b0fe"
    },
    {
      "constant": false,
      "inputs": [
        {
          "name": "_nom",
          "type": "string"
        },
        {
          "name": "_siege",
          "type": "string"
        },
        {
          "name": "_surface",
          "type": "uint256"
        }
      ],
      "name": "addBigStore",
      "outputs": [],
      "payable": false,
      "stateMutability": "nonpayable",
      "type": "function",
      "signature": "0x5998471a"
    },
    {
      "constant": false,
      "inputs": [
        {
          "name": "_assoc",
          "type": "address"
        }
      ],
      "name": "addConvention",
      "outputs": [],
      "payable": false,
      "stateMutability": "nonpayable",
      "type": "function",
      "signature": "0x0ab63eef"
    },
    {
      "constant": false,
      "inputs": [
        {
          "name": "_categorie",
          "type": "uint256"
        },
        {
          "name": "_quantite",
          "type": "uint256"
        }
      ],
      "name": "proposedGood",
      "outputs": [],
      "payable": false,
      "stateMutability": "nonpayable",
      "type": "function",
      "signature": "0xf3622d1e"
    },
    {
      "constant": false,
      "inputs": [
        {
          "name": "_index",
          "type": "uint256"
        }
      ],
      "name": "selectedGood",
      "outputs": [],
      "payable": false,
      "stateMutability": "nonpayable",
      "type": "function",
      "signature": "0x639b6cba"
    },
    {
      "constant": false,
      "inputs": [
        {
          "name": "_index",
          "type": "uint256"
        }
      ],
      "name": "sentGood",
      "outputs": [],
      "payable": false,
      "stateMutability": "nonpayable",
      "type": "function",
      "signature": "0x8386eb50"
    }
  ],
  "bytecode": "0x608060405234801561001057600080fd5b5033600360006101000a81548173ffffffffffffffffffffffffffffffffffffffff021916908373ffffffffffffffffffffffffffffffffffffffff1602179055506127b4806100616000396000f3fe608060405234801561001057600080fd5b5060043610610133576000357c0100000000000000000000000000000000000000000000000000000000900480638386eb50116100bf578063c0c2e3691161008e578063c0c2e36914610747578063d2b7b0fe14610765578063d47c5f60146108c1578063e47d606014610a0e578063f3622d1e14610a6a57610133565b80638386eb50146105305780639e2c42601461055e578063b2bdfa7b146106b9578063bbde5b251461070357610133565b8063143e0fef11610106578063143e0fef146102665780632e2e03f4146102b65780632f724394146102d45780635998471a146103a6578063639b6cba1461050257610133565b80630ab63eef146101385780630c437d581461017c5780630e0abafa146101f85780631417ff7e14610248575b600080fd5b61017a6004803603602081101561014e57600080fd5b81019080803573ffffffffffffffffffffffffffffffffffffffff169060200190929190505050610aa2565b005b6101de6004803603604081101561019257600080fd5b81019080803573ffffffffffffffffffffffffffffffffffffffff169060200190929190803573ffffffffffffffffffffffffffffffffffffffff169060200190929190505050610c95565b604051808215151515815260200191505060405180910390f35b6102246004803603602081101561020e57600080fd5b8101908080359060200190929190505050610db5565b6040518082600481111561023457fe5b60ff16815260200191505060405180910390f35b610250610e16565b6040518082815260200191505060405180910390f35b6102926004803603602081101561027c57600080fd5b8101908080359060200190929190505050610e1c565b604051808260028111156102a257fe5b60ff16815260200191505060405180910390f35b6102be610e59565b6040518082815260200191505060405180910390f35b610300600480360360208110156102ea57600080fd5b8101908080359060200190929190505050610e5f565b6040518088815260200187600481111561031657fe5b60ff1681526020018681526020018573ffffffffffffffffffffffffffffffffffffffff1673ffffffffffffffffffffffffffffffffffffffff1681526020018481526020018373ffffffffffffffffffffffffffffffffffffffff1673ffffffffffffffffffffffffffffffffffffffff16815260200182815260200197505050505050505060405180910390f35b610500600480360360608110156103bc57600080fd5b81019080803590602001906401000000008111156103d957600080fd5b8201836020820111156103eb57600080fd5b8035906020019184600183028401116401000000008311171561040d57600080fd5b91908080601f016020809104026020016040519081016040528093929190818152602001838380828437600081840152601f19601f8201169050808301925050505050505091929192908035906020019064010000000081111561047057600080fd5b82018360208201111561048257600080fd5b803590602001918460018302840111640100000000831117156104a457600080fd5b91908080601f016020809104026020016040519081016040528093929190818152602001838380828437600081840152601f19601f82011690508083019250505050505050919291929080359060200190929190505050610eee565b005b61052e6004803603602081101561051857600080fd5b810190808035906020019092919050505061104a565b005b61055c6004803603602081101561054657600080fd5b81019080803590602001909291905050506116f8565b005b61058a6004803603602081101561057457600080fd5b810190808035906020019092919050505061199b565b604051808573ffffffffffffffffffffffffffffffffffffffff1673ffffffffffffffffffffffffffffffffffffffff16815260200180602001806020018460028111156105d457fe5b60ff168152602001838103835286818151815260200191508051906020019080838360005b838110156106145780820151818401526020810190506105f9565b50505050905090810190601f1680156106415780820380516001836020036101000a031916815260200191505b50838103825285818151815260200191508051906020019080838360005b8381101561067a57808201518184015260208101905061065f565b50505050905090810190601f1680156106a75780820380516001836020036101000a031916815260200191505b50965050505050505060405180910390f35b6106c1611b28565b604051808273ffffffffffffffffffffffffffffffffffffffff1673ffffffffffffffffffffffffffffffffffffffff16815260200191505060405180910390f35b6107456004803603602081101561071957600080fd5b81019080803573ffffffffffffffffffffffffffffffffffffffff169060200190929190505050611b4e565b005b61074f611c6f565b6040518082815260200191505060405180910390f35b6108bf6004803603606081101561077b57600080fd5b810190808035906020019064010000000081111561079857600080fd5b8201836020820111156107aa57600080fd5b803590602001918460018302840111640100000000831117156107cc57600080fd5b91908080601f016020809104026020016040519081016040528093929190818152602001838380828437600081840152601f19601f8201169050808301925050505050505091929192908035906020019064010000000081111561082f57600080fd5b82018360208201111561084157600080fd5b8035906020019184600183028401116401000000008311171561086357600080fd5b91908080601f016020809104026020016040519081016040528093929190818152602001838380828437600081840152601f19601f82011690508083019250505050505050919291929080359060200190929190505050611c75565b005b6108ed600480360360208110156108d757600080fd5b8101908080359060200190929190505050611e12565b604051808573ffffffffffffffffffffffffffffffffffffffff1673ffffffffffffffffffffffffffffffffffffffff1681526020018060200180602001848152602001838103835286818151815260200191508051906020019080838360005b8381101561096957808201518184015260208101905061094e565b50505050905090810190601f1680156109965780820380516001836020036101000a031916815260200191505b50838103825285818151815260200191508051906020019080838360005b838110156109cf5780820151818401526020810190506109b4565b50505050905090810190601f1680156109fc5780820380516001836020036101000a031916815260200191505b50965050505050505060405180910390f35b610a5060048036036020811015610a2457600080fd5b81019080803573ffffffffffffffffffffffffffffffffffffffff169060200190929190505050611f92565b604051808215151515815260200191505060405180910390f35b610aa060048036036040811015610a8057600080fd5b810190808035906020019092919080359060200190929190505050612036565b005b6000600760003373ffffffffffffffffffffffffffffffffffffffff1673ffffffffffffffffffffffffffffffffffffffff1681526020019081526020016000205414151515610b5a576040517f08c379a000000000000000000000000000000000000000000000000000000000815260040180806020018281038252600d8152602001807f4e6f74204269672053746f72650000000000000000000000000000000000000081525060200191505060405180910390fd5b610b6261259c565b33816000019073ffffffffffffffffffffffffffffffffffffffff16908173ffffffffffffffffffffffffffffffffffffffff168152505081816020019073ffffffffffffffffffffffffffffffffffffffff16908173ffffffffffffffffffffffffffffffffffffffff16815250506005819080600181540180825580915050906001820390600052602060002090600202016000909192909190915060008201518160000160006101000a81548173ffffffffffffffffffffffffffffffffffffffff021916908373ffffffffffffffffffffffffffffffffffffffff16021790555060208201518160010160006101000a81548173ffffffffffffffffffffffffffffffffffffffff021916908373ffffffffffffffffffffffffffffffffffffffff1602179055505050505050565b6000805b60058054905081111515610da9578373ffffffffffffffffffffffffffffffffffffffff16600582815481101515610ccd57fe5b906000526020600020906002020160000160009054906101000a900473ffffffffffffffffffffffffffffffffffffffff1673ffffffffffffffffffffffffffffffffffffffff16148015610d8d57508273ffffffffffffffffffffffffffffffffffffffff16600582815481101515610d4357fe5b906000526020600020906002020160010160009054906101000a900473ffffffffffffffffffffffffffffffffffffffff1673ffffffffffffffffffffffffffffffffffffffff16145b15610d9c576001915050610daf565b8080600101915050610c99565b50600090505b92915050565b600080821415610dc85760009050610e11565b6001821415610dda5760019050610e11565b6002821415610dec5760029050610e11565b6003821415610dfe5760039050610e11565b6004821415610e105760049050610e11565b5b919050565b60025481565b600080821415610e2f5760009050610e54565b6001821415610e415760019050610e54565b6002821415610e535760029050610e54565b5b919050565b60015481565b60096020528060005260406000206000915090508060000154908060010160009054906101000a900460ff16908060020154908060030160009054906101000a900473ffffffffffffffffffffffffffffffffffffffff16908060040154908060050160009054906101000a900473ffffffffffffffffffffffffffffffffffffffff16908060060154905087565b610ef66125e2565b33816000019073ffffffffffffffffffffffffffffffffffffffff16908173ffffffffffffffffffffffffffffffffffffffff168152505083816020018190525082816040018190525081816060018181525050600080815480929190600101919050555080600a60008054815260200190815260200160002060008201518160000160006101000a81548173ffffffffffffffffffffffffffffffffffffffff021916908373ffffffffffffffffffffffffffffffffffffffff1602179055506020820151816001019080519060200190610fd3929190612621565b506040820151816002019080519060200190610ff0929190612621565b5060608201518160030155905050600054600760003373ffffffffffffffffffffffffffffffffffffffff1673ffffffffffffffffffffffffffffffffffffffff1681526020019081526020016000208190555050505050565b6000600660003373ffffffffffffffffffffffffffffffffffffffff1673ffffffffffffffffffffffffffffffffffffffff1681526020019081526020016000205414151515611102576040517f08c379a000000000000000000000000000000000000000000000000000000000815260040180806020018281038252600f8152602001807f4e6f74204173736f63696174696f6e000000000000000000000000000000000081525060200191505060405180910390fd5b6000151561110f33611f92565b1515141515611186576040517f08c379a000000000000000000000000000000000000000000000000000000000815260040180806020018281038252600e8152602001807f497320426c61636b4c697374656400000000000000000000000000000000000081525060200191505060405180910390fd5b61118e6126a1565b6009600083815260200190815260200160002060e06040519081016040529081600082015481526020016001820160009054906101000a900460ff1660048111156111d557fe5b60048111156111e057fe5b8152602001600282015481526020016003820160009054906101000a900473ffffffffffffffffffffffffffffffffffffffff1673ffffffffffffffffffffffffffffffffffffffff1673ffffffffffffffffffffffffffffffffffffffff168152602001600482015481526020016005820160009054906101000a900473ffffffffffffffffffffffffffffffffffffffff1673ffffffffffffffffffffffffffffffffffffffff1673ffffffffffffffffffffffffffffffffffffffff16815260200160068201548152505090506112be816060015133610c95565b1515611332576040517f08c379a00000000000000000000000000000000000000000000000000000000081526004018080602001828103825260158152602001807f4e6f20636f6e76656e74696f6e206265747765656e000000000000000000000081525060200191505060405180910390fd5b62015180620d2f0001816080015142031115151561134f57600080fd5b338160a0019073ffffffffffffffffffffffffffffffffffffffff16908173ffffffffffffffffffffffffffffffffffffffff16815250506000600660003373ffffffffffffffffffffffffffffffffffffffff1673ffffffffffffffffffffffffffffffffffffffff1681526020019081526020016000205490506113d3612719565b600b6000838152602001908152602001600020608060405190810160405290816000820160009054906101000a900473ffffffffffffffffffffffffffffffffffffffff1673ffffffffffffffffffffffffffffffffffffffff1673ffffffffffffffffffffffffffffffffffffffff168152602001600182018054600181600116156101000203166002900480601f0160208091040260200160405190810160405280929190818152602001828054600181600116156101000203166002900480156114e15780601f106114b6576101008083540402835291602001916114e1565b820191906000526020600020905b8154815290600101906020018083116114c457829003601f168201915b50505050508152602001600282018054600181600116156101000203166002900480601f0160208091040260200160405190810160405280929190818152602001828054600181600116156101000203166002900480156115835780601f1061155857610100808354040283529160200191611583565b820191906000526020600020905b81548152906001019060200180831161156657829003601f168201915b505050505081526020016003820160009054906101000a900460ff1660028111156115aa57fe5b60028111156115b557fe5b8152505090507ff3da733028e0cd6a5e7c905727370f55cdda02d1f39e8b32ceecfccf143da12283602001518460400151836020015184604001516040518085600481111561160057fe5b60ff1681526020018481526020018060200180602001838103835285818151815260200191508051906020019080838360005b8381101561164e578082015181840152602081019050611633565b50505050905090810190601f16801561167b5780820380516001836020036101000a031916815260200191505b50838103825284818151815260200191508051906020019080838360005b838110156116b4578082015181840152602081019050611699565b50505050905090810190601f1680156116e15780820380516001836020036101000a031916815260200191505b50965050505050505060405180910390a150505050565b600360009054906101000a900473ffffffffffffffffffffffffffffffffffffffff1673ffffffffffffffffffffffffffffffffffffffff163373ffffffffffffffffffffffffffffffffffffffff1614151561175457600080fd5b61175c6126a1565b6009600083815260200190815260200160002060e06040519081016040529081600082015481526020016001820160009054906101000a900460ff1660048111156117a357fe5b60048111156117ae57fe5b8152602001600282015481526020016003820160009054906101000a900473ffffffffffffffffffffffffffffffffffffffff1673ffffffffffffffffffffffffffffffffffffffff1673ffffffffffffffffffffffffffffffffffffffff168152602001600482015481526020016005820160009054906101000a900473ffffffffffffffffffffffffffffffffffffffff1673ffffffffffffffffffffffffffffffffffffffff1673ffffffffffffffffffffffffffffffffffffffff1681526020016006820154815250509050620d2f0081608001514203111515156118ff576040517f08c379a000000000000000000000000000000000000000000000000000000000815260040180806020018281038252600e8152602001807f64656c617920657870697265642000000000000000000000000000000000000081525060200191505060405180910390fd5b600960008381526020019081526020016000206000808201600090556001820160006101000a81549060ff021916905560028201600090556003820160006101000a81549073ffffffffffffffffffffffffffffffffffffffff021916905560048201600090556005820160006101000a81549073ffffffffffffffffffffffffffffffffffffffff0219169055600682016000905550505050565b600b6020528060005260406000206000915090508060000160009054906101000a900473ffffffffffffffffffffffffffffffffffffffff1690806001018054600181600116156101000203166002900480601f016020809104026020016040519081016040528092919081815260200182805460018160011615610100020316600290048015611a6d5780601f10611a4257610100808354040283529160200191611a6d565b820191906000526020600020905b815481529060010190602001808311611a5057829003601f168201915b505050505090806002018054600181600116156101000203166002900480601f016020809104026020016040519081016040528092919081815260200182805460018160011615610100020316600290048015611b0b5780601f10611ae057610100808354040283529160200191611b0b565b820191906000526020600020905b815481529060010190602001808311611aee57829003601f168201915b5050505050908060030160009054906101000a900460ff16905084565b600360009054906101000a900473ffffffffffffffffffffffffffffffffffffffff1681565b6000600760003373ffffffffffffffffffffffffffffffffffffffff1673ffffffffffffffffffffffffffffffffffffffff1681526020019081526020016000205414151515611c06576040517f08c379a000000000000000000000000000000000000000000000000000000000815260040180806020018281038252600d8152602001807f4e6f74204269672053746f72650000000000000000000000000000000000000081525060200191505060405180910390fd5b60048190806001815401808255809150509060018203906000526020600020016000909192909190916101000a81548173ffffffffffffffffffffffffffffffffffffffff021916908373ffffffffffffffffffffffffffffffffffffffff1602179055505050565b60005481565b611c7d612719565b33816000019073ffffffffffffffffffffffffffffffffffffffff16908173ffffffffffffffffffffffffffffffffffffffff1681525050838160200181905250828160400181905250611cd082610e1c565b81606001906002811115611ce057fe5b90816002811115611ced57fe5b8152505060016000815480929190600101919050555080600b6000600154815260200190815260200160002060008201518160000160006101000a81548173ffffffffffffffffffffffffffffffffffffffff021916908373ffffffffffffffffffffffffffffffffffffffff1602179055506020820151816001019080519060200190611d7c929190612621565b506040820151816002019080519060200190611d99929190612621565b5060608201518160030160006101000a81548160ff02191690836002811115611dbe57fe5b0217905550905050600154600660003373ffffffffffffffffffffffffffffffffffffffff1673ffffffffffffffffffffffffffffffffffffffff1681526020019081526020016000208190555050505050565b600a6020528060005260406000206000915090508060000160009054906101000a900473ffffffffffffffffffffffffffffffffffffffff1690806001018054600181600116156101000203166002900480601f016020809104026020016040519081016040528092919081815260200182805460018160011615610100020316600290048015611ee45780601f10611eb957610100808354040283529160200191611ee4565b820191906000526020600020905b815481529060010190602001808311611ec757829003601f168201915b505050505090806002018054600181600116156101000203166002900480601f016020809104026020016040519081016040528092919081815260200182805460018160011615610100020316600290048015611f825780601f10611f5757610100808354040283529160200191611f82565b820191906000526020600020905b815481529060010190602001808311611f6557829003601f168201915b5050505050908060030154905084565b600080600090505b60048054905081101561202b578273ffffffffffffffffffffffffffffffffffffffff16600482815481101515611fcd57fe5b9060005260206000200160009054906101000a900473ffffffffffffffffffffffffffffffffffffffff1673ffffffffffffffffffffffffffffffffffffffff16141561201e576001915050612031565b8080600101915050611f9a565b50600090505b919050565b6000600760003373ffffffffffffffffffffffffffffffffffffffff1673ffffffffffffffffffffffffffffffffffffffff16815260200190815260200160002054141515156120ee576040517f08c379a000000000000000000000000000000000000000000000000000000000815260040180806020018281038252600d8152602001807f4e6f74204269672053746f72650000000000000000000000000000000000000081525060200191505060405180910390fd5b6120f66126a1565b60026000815480929190600101919050555060025481600001818152505061211d83610db5565b8160200190600481111561212d57fe5b9081600481111561213a57fe5b81525050818160400181815250504281608001818152505033816060019073ffffffffffffffffffffffffffffffffffffffff16908173ffffffffffffffffffffffffffffffffffffffff1681525050806009600060025481526020019081526020016000206000820151816000015560208201518160010160006101000a81548160ff021916908360048111156121ce57fe5b02179055506040820151816002015560608201518160030160006101000a81548173ffffffffffffffffffffffffffffffffffffffff021916908373ffffffffffffffffffffffffffffffffffffffff1602179055506080820151816004015560a08201518160050160006101000a81548173ffffffffffffffffffffffffffffffffffffffff021916908373ffffffffffffffffffffffffffffffffffffffff16021790555060c082015181600601559050506060600a6000600760003373ffffffffffffffffffffffffffffffffffffffff1673ffffffffffffffffffffffffffffffffffffffff1681526020019081526020016000205481526020019081526020016000206001018054600181600116156101000203166002900480601f01602080910402602001604051908101604052809291908181526020018280546001816001161561010002031660029004801561236d5780601f106123425761010080835404028352916020019161236d565b820191906000526020600020905b81548152906001019060200180831161235057829003601f168201915b505050505090506060600a6000600760003373ffffffffffffffffffffffffffffffffffffffff1673ffffffffffffffffffffffffffffffffffffffff1681526020019081526020016000205481526020019081526020016000206002018054600181600116156101000203166002900480601f01602080910402602001604051908101604052809291908181526020018280546001816001161561010002031660029004801561245f5780601f106124345761010080835404028352916020019161245f565b820191906000526020600020905b81548152906001019060200180831161244257829003601f168201915b505050505090507f93026f417a1729d0da2973115e4399b6b2c286c5eab29ba2016e9efdded0127f61249086610db5565b858484604051808560048111156124a357fe5b60ff1681526020018481526020018060200180602001838103835285818151815260200191508051906020019080838360005b838110156124f15780820151818401526020810190506124d6565b50505050905090810190601f16801561251e5780820380516001836020036101000a031916815260200191505b50838103825284818151815260200191508051906020019080838360005b8381101561255757808201518184015260208101905061253c565b50505050905090810190601f1680156125845780820380516001836020036101000a031916815260200191505b50965050505050505060405180910390a15050505050565b6040805190810160405280600073ffffffffffffffffffffffffffffffffffffffff168152602001600073ffffffffffffffffffffffffffffffffffffffff1681525090565b608060405190810160405280600073ffffffffffffffffffffffffffffffffffffffff1681526020016060815260200160608152602001600081525090565b828054600181600116156101000203166002900490600052602060002090601f016020900481019282601f1061266257805160ff1916838001178555612690565b82800160010185558215612690579182015b8281111561268f578251825591602001919060010190612674565b5b50905061269d9190612763565b5090565b60e06040519081016040528060008152602001600060048111156126c157fe5b815260200160008152602001600073ffffffffffffffffffffffffffffffffffffffff16815260200160008152602001600073ffffffffffffffffffffffffffffffffffffffff168152602001600080191681525090565b608060405190810160405280600073ffffffffffffffffffffffffffffffffffffffff16815260200160608152602001606081526020016000600281111561275d57fe5b81525090565b61278591905b80821115612781576000816000905550600101612769565b5090565b9056fea165627a7a723058206a7d93ddb7647b64154de921e570cda887c041018f7e96c0f61f09da257e96940029",
  "source": "pragma solidity ^0.5.3;\r\ncontract foodsMarket {\r\n    \r\n    uint public bigStoresCount;\r\n    uint public associationsCount;\r\n    uint public goodsCount;\r\n     \r\n    uint constant private DELAI = 10 days;\r\n    address public _owner;\r\n    \r\n    event ProposedGoodEvent(Categorie categorie,uint quantite, string nom, string siege);\r\n    event SelectedGoodEvent(Categorie categorie,uint quantite, string titre, string siege);\r\n    \r\n    struct Association {\r\n        address adrAssoc;\r\n        string titre;\r\n        string siege;\r\n        Statuts statuts;\r\n        \r\n    }\r\n    \r\n    struct BigStore {\r\n        address adrBigStore;\r\n        string nom;\r\n        string siege;\r\n        uint surface;\r\n    }\r\n    \r\n    struct Good{\r\n       uint id;\r\n       Categorie categorie;        \r\n       uint quantite;\r\n       address bigStoreAddress;\r\n       uint dateDepot;\r\n       address assocAddress;\r\n       bytes32 hash;\r\n   }\r\n   struct Convention{\r\n       address bigStore;\r\n       address assoc;\r\n   }\r\n   \r\n   enum Categorie{\r\n        PRODUITFRAIS,\r\n        FRUITLEGUME,\r\n        VIANDE,\r\n        VIENNOISERIE,\r\n        SURGELE\r\n    }\r\n   enum Statuts{\r\n       NONDECLAREE,\r\n       DECLAREE,\r\n       UTILITEPUBLIQUE\r\n   }\r\n   \r\n   \r\n   address[] blackList;\r\n   //BigStore[] bigStores;\r\n   //Association[] associations;\r\n   Convention[] conventions; \r\n   \r\n   mapping(address=>uint) addressToAssoc;\r\n   mapping(address => uint) addressToBigStore;\r\n   \r\n   mapping(address => address) conventionBigStoreAssoc;  // A revoir\r\n   \r\n   mapping(uint=> Good) public goods;\r\n   mapping(uint => BigStore) public bigStores;\r\n   mapping(uint => Association) public associations;\r\n   \r\n   constructor() public{\r\n      _owner = msg.sender; \r\n   }\r\n   \r\n   modifier isAssoc() {\r\n        require(addressToAssoc[msg.sender] != 0,\"Not Association\"); \r\n        _;\r\n   }\r\n   \r\n   modifier isBigStore() {\r\n        require(addressToBigStore[msg.sender] != 0,\"Not Big Store\");\r\n        _;\r\n   }\r\n   function blackListed(address _address) public isBigStore{\r\n       blackList.push(_address);\r\n   }\r\n   \r\n   function isBlackListed(address _address) public view returns(bool){\r\n       for(uint i=0; i<blackList.length; i++ ){\r\n           if(blackList[i]==_address){\r\n              return true; \r\n           }\r\n       }\r\n       return false;\r\n   }\r\n   \r\n   modifier notBlackListed() {\r\n       require(isBlackListed(msg.sender) == false,\"Is BlackListed\");\r\n       _;\r\n   }\r\n   modifier isOwner() {\r\n       require(msg.sender == _owner);\r\n       _;\r\n   }\r\n   function enumCat(uint _cat) public pure returns(Categorie){\r\n    if(_cat == 0){return Categorie.PRODUITFRAIS;}\r\n        else if(_cat == 1){return Categorie.FRUITLEGUME;}\r\n        else if(_cat == 2){return Categorie.VIANDE;}\r\n        else if(_cat == 3){return Categorie.VIENNOISERIE;}\r\n        else if(_cat == 4){return Categorie.SURGELE;}   \r\n   }\r\n   function enumStat (uint _stat) public pure returns(Statuts){\r\n    if(_stat == 0){return Statuts.NONDECLAREE;}\r\n        else if(_stat == 1){return Statuts.DECLAREE;}\r\n        else if(_stat == 2){return Statuts.UTILITEPUBLIQUE;}\r\n           \r\n   }\r\n   \r\n   function withConventionBigStoreAssoc(address _bigStoreAdr, address _assocAdr) public view returns (bool){\r\n       for(uint i; i<= conventions.length; i++){\r\n           if(conventions[i].bigStore == _bigStoreAdr && conventions[i].assoc == _assocAdr){\r\n               return true;\r\n           }\r\n       }\r\n       return false;\r\n    } \r\n   \r\n   function addAssociation(string memory _titre, string memory _siege, uint _statuts) public {\r\n        Association memory _association;\r\n        _association.adrAssoc = msg.sender;\r\n        _association.titre = _titre;\r\n        _association.siege = _siege;\r\n        _association.statuts = enumStat(_statuts);\r\n        associationsCount++;\r\n        associations[associationsCount] = _association;\r\n        addressToAssoc[msg.sender] = associationsCount;\r\n   }\r\n   \r\n   function addBigStore(string memory _nom, string memory _siege, uint _surface) public {\r\n        BigStore memory _bigStore;\r\n        _bigStore.adrBigStore = msg.sender;\r\n        _bigStore.nom = _nom;\r\n        _bigStore.siege = _siege;\r\n        _bigStore.surface = _surface;\r\n        bigStoresCount++;\r\n        bigStores[bigStoresCount] = _bigStore;\r\n        addressToBigStore[msg.sender] = bigStoresCount;\r\n   }\r\n   function addConvention(address _assoc ) public isBigStore{\r\n       Convention memory _convention;\r\n       _convention.bigStore = msg.sender;\r\n       _convention.assoc = _assoc;\r\n       conventions.push(_convention);\r\n       }\r\n   \r\n   function proposedGood(uint _categorie, uint _quantite) public isBigStore{\r\n        Good memory _good;\r\n        goodsCount++;\r\n        _good.id =goodsCount;\r\n        _good.categorie = enumCat(_categorie);\r\n        _good.quantite = _quantite;\r\n        _good.dateDepot = now;\r\n        _good.bigStoreAddress = msg.sender;\r\n        goods[goodsCount] = _good;\r\n        string memory _nom = bigStores[addressToBigStore[msg.sender]].nom;\r\n        string memory _siege = bigStores[addressToBigStore[msg.sender]].siege;\r\n        emit ProposedGoodEvent(enumCat(_categorie),_quantite, _nom, _siege);\r\n    }\r\n   \r\n   \r\n   function selectedGood(uint _index) public isAssoc notBlackListed{\r\n       Good memory _good = goods[_index];\r\n       require(withConventionBigStoreAssoc(_good.bigStoreAddress,msg.sender),\"No convention between\");\r\n       require(now - _good.dateDepot <= DELAI + 1 days);\r\n       _good.assocAddress = msg.sender;\r\n       uint _indexAssoc = addressToAssoc[msg.sender];\r\n       Association memory _association = associations[_indexAssoc];\r\n       emit SelectedGoodEvent(_good.categorie,_good.quantite,_association.titre,_association.siege);\r\n   }\r\n   \r\n   function sentGood(uint _index) public isOwner {\r\n       Good memory _good = goods[_index];\r\n       require(now - _good.dateDepot <= DELAI,\"delay expired \");  \r\n       // suppression de la marchandise livree\r\n       delete goods[_index];\r\n    }\r\n   \r\n\r\n}",
  "sourcePath": "D:/foodsmarket/contracts/foodsMarket.sol",
  "compiler": {
    "name": "solc",
    "version": "0.5.3+commit.10d17f24.Emscripten.clang"
  },
  "schemaVersion": "3.0.5",
  "updatedAt": "2019-04-05T13:28:51.850Z",
  "devdoc": {
    "methods": {}
  },
  "userdoc": {
    "methods": {}
  }
}